{
  "transactions": [
    {
      "hash": "0xf2d030e649b336f1923c3f03d6e5c1552002cb44b3a38fbad68fe74b330ef4e2",
      "transactionType": "CALL",
      "contractName": null,
      "contractAddress": "0x9317fe0a7710868fcf683475e8f94498ac45c1a1",
      "function": "mintNft(string)",
      "arguments": [
        "ipfs://bafybeig37ioir76s7mg5oobetncojcm3c3hxasyd4rvid4jqhy4gkaheg4/?filename=0-PUG.json"
      ],
      "transaction": {
        "from": "0x646ba75a38912a65907a34856db1c2c4bf423492",
        "to": "0x9317fe0a7710868fcf683475e8f94498ac45c1a1",
        "gas": "0x3da7f",
        "value": "0x0",
        "input": "0xda86f4a900000000000000000000000000000000000000000000000000000000000000200000000000000000000000000000000000000000000000000000000000000057697066733a2f2f62616679626569673337696f6972373673376d67356f6f6265746e636f6a636d3363336878617379643472766964346a71687934676b61686567342f3f66696c656e616d653d302d5055472e6a736f6e000000000000000000",
        "nonce": "0x4",
        "chainId": "0xaa36a7"
      },
      "additionalContracts": [],
      "isFixedGasLimit": false
    }
  ],
  "receipts": [
    {
      "status": "0x1",
      "cumulativeGasUsed": "0x19e06ac",
      "logs": [
        {
          "address": "0x9317fe0a7710868fcf683475e8f94498ac45c1a1",
          "topics": [
            "0xddf252ad1be2c89b69c2b068fc378daa952ba7f163c4a11628f55a4df523b3ef",
            "0x0000000000000000000000000000000000000000000000000000000000000000",
            "0x000000000000000000000000646ba75a38912a65907a34856db1c2c4bf423492",
            "0x0000000000000000000000000000000000000000000000000000000000000000"
          ],
          "data": "0x",
          "blockHash": "0x5791bccfbed01cca2a5300bfd14f031bb6ebe666a0a52b7ff4d3d19147e389f0",
          "blockNumber": "0x8ca6a2",
          "blockTimestamp": "0x68c9d288",
          "transactionHash": "0xf2d030e649b336f1923c3f03d6e5c1552002cb44b3a38fbad68fe74b330ef4e2",
          "transactionIndex": "0x5a",
          "logIndex": "0x76",
          "removed": false
        }
      ],
      "logsBloom": "0x00000000000000000000000002000000000000000000000000000000000000000000000000000000000000000000000000000000000000000000000000000000000000000000000000000008000000000000000000000000000000000000000000000000020000000000000000041800000000000000000000000010000000000000200000000000000000000000000000000000000000000000000000000000000000000000000000000000000000000000000000000000000000000000000000800002000000000000000000000000000000000000000000000000000020000000000000000000000000000000000000000000000020000000000000000000",
      "type": "0x2",
      "transactionHash": "0xf2d030e649b336f1923c3f03d6e5c1552002cb44b3a38fbad68fe74b330ef4e2",
      "transactionIndex": "0x5a",
      "blockHash": "0x5791bccfbed01cca2a5300bfd14f031bb6ebe666a0a52b7ff4d3d19147e389f0",
      "blockNumber": "0x8ca6a2",
      "gasUsed": "0x2ca35",
      "effectiveGasPrice": "0x1625d2",
      "from": "0x646ba75a38912a65907a34856db1c2c4bf423492",
      "to": "0x9317fe0a7710868fcf683475e8f94498ac45c1a1",
      "contractAddress": null
    }
  ],
  "libraries": [],
  "pending": [],
  "returns": {},
  "timestamp": 1758057097528,
  "chain": 11155111,
  "commit": "e911764"
}